:020000040800F2
:10000000684000206D020008CD1C0008E51A0008B9
:10001000C91C0008DD020008891F0008000000005C
:10002000000000000000000000000000111E000899
:10003000E102000800000000D11C0008151E0008A5
:1000400089020008890200088902000800000000F7
:1000500089020008890200088902000800000000E7
:1000600089020008890200080000000089020008D7
:100070008902000889020008890200088902000834
:100080008902000889020008890200088902000824
:100090008902000889020008890200088902000814
:1000A0008902000889020008890200088902000804
:1000B00089020008890200088902000889020008F4
:1000C00089020008890200088902000889020008E4
:1000D0000000000089020008890200088902000867
:1000E00089020008890200088902000889020008C4
:1000F0008902000889020008890200080000000047
:100100000000000089020008890200088902000836
:100110008902000889020008890200088902000893
:100120008902000889020008890200088902000883
:100130008902000800000000000000008902000899
:10014000890200080000000000000000000000001C
:10015000000000000000000089020008000000000C
:100160000000000000000000890200088902000869
:10017000000000000000000000000000000000007F
:10018000000000000000000000000000000000006F
:10019000000000000000000000000000000000005F
:1001A0000000000000000000890200088902000829
:1001B00089020008890200088902000889020008F3
:1001C0008902000889020008000000000000000009
:1001D000000000000000000000000000890200088C
:1001E000890200080000000000000000000000007C
:1001F00000000000000000000000000000000000FF
:1002000000000000890200088902000800000000C8
:10021000000000008902000800000000000000004B
:10022000000000000000000000000000890200083B
:10023000890200080000000000000000000000002B
:10024000000000000000000000000000890200081B
:100250008902000889020008DFF80CD000F02CF8B1
:10026000004800478D1F000868400020074880476D
:1002700007480047FEE7FEE7FEE7FEE7FEE7FEE78A
:10028000FEE7FEE7FEE7FEE7FEE70000E11E0008EE
:1002900059020008D2B201E000F8012B491EFBD23E
:1002A00070470022F6E710B513460A460446194681
:1002B000FFF7F0FF204610BD064C074D06E0E06852
:1002C00040F0010394E8070098471034AC42F6D39D
:1002D000FFF7C6FF98200008B8200008FEE70000DE
:1002E0007047000072B600BFFEE70000B0B50446DC
:1002F00000F0DEF8054640F20000C2F2000000788F
:10030000611C18BF044400BF00F0D2F8401BA0429B
:10031000FAD3B0BD2DE9F04F81B00B68002B00F08F
:10032000BD8047F67F72C0F22F0202EA90224FF0A2
:10033000000B00260027012400920BE00B68083711
:1003400033FA04F504F1010406F102060BF1040B83
:1003500000F0A480A4F10108012202FA08FC13EACB
:100360000C02EBD0D1F804E04EF01003122B18D1A0
:100370006FF0030303EA58030BF01C0500EB030ABC
:10038000DAF820E00F23D1F81090AB402EEA030EEC
:1003900009F00F03AB4043EA0E03CAF82030D1F84E
:1003A00004E003680325B5400EF003096FEA050A6F
:1003B000AB4309FA06F52B43BEF1120F036065D873
:1003C000012303FA0EF313F0061F5FD08368CD6894
:1003D00003EA0A03B5402B43836043684FEA1E15C6
:1003E00023EA0C0305FA08F52B434360C3688D68C4
:1003F00003EA0A03B5402B43C3605FEACE039DD5F1
:1004000028F0030342F20008C4F2024808EB030E8E
:10041000DEF860C007F018050F23AB402CEA030C90
:10042000009B03FA05F54CEA0503CEF86030D8F8D6
:1004300000C0D1F804E04CEA02055FEACE2358BFC1
:100440002CEA0205C8F80050D8F804C05FEA8E23F1
:100450004CEA020558BF2CEA0205C8F80450D8F847
:1004600084C05FEA8E334CEA020558BF2CEA0205CD
:10047000C8F88450D8F880C05FEACE334CEA020551
:1004800058BF2CEA0205C8F8805057E7B9F1030FAE
:10049000ACD18B68012BA9D1AFE700BF01B0BDE89B
:1004A000F08F00001823002A08BF2823C15070478E
:1004B00040F26000C2F200000068704740F20000A5
:1004C00040F26001C2F20000C2F2000100780A6846
:1004D000104408607047000080B5032000F0A6F8C3
:1004E00000F0ECF940F62041C4F20241096842F202
:1004F000680201F00F01C0F60002515CC84040F2F2
:100500000801C2F200010860042000F093FD0F20F2
:1005100000F008F800281CBF012080BD00F058F84A
:10052000002080BD70B540F20006C2F200063178AE
:10053000E1B304464EF21000CEF20000006840071E
:1005400010D400F0D1FD02281CD0012822D078BBA5
:1005500040F20800C2F20000006831784FF4FA520D
:1005600007E000BF40F20800C2F2000000684FF44C
:100570007A72B2FBF1F1B0FBF1F000F0A3FDA8B983
:100580001BE000BF30784FF47A71B1FBF0F04FF40C
:10059000004106E030784FF47A71B1FBF0F04FF48F
:1005A000FA41B1FBF0F000F08DFD30B1012070BDDB
:1005B000002000F087FD0028F8D14FF0FF302146E1
:1005C0000022002500F006F82846746070BD000087
:1005D0007047000010B54EF60C5CCEF2000CDCF853
:1005E0000030C3F3022E8EF00704042C28BF04242D
:1005F000BEF103034FF0FF3E38BF00230EFA04F4B0
:10060000A14399400EFA03F39A43114300F00F02FD
:10061000043A624409010C3200F16043B0F1FF3F3B
:10062000C8BF03F56442117010BD00004EF60C51B6
:10063000CEF200010A684FF6FF031A4060F30A2267
:1006400042F0806040F0FD70086070472DE9F04393
:1006500081B0002800F0CD8042F20008C4F2020808
:100660000446D8F800000D4600F00F0088420DD275
:10067000D8F8000020F00F002843C8F80000D8F890
:10068000000000F00F00A84240F0B380206840F660
:100690002047C106C4F202470CD561693A6870234D
:1006A00003EA1222914205D93A6822F4E04242EA72
:1006B0000121396001070CD521693A68702303EAEA
:1006C0001212914205D93A6822F4E06242EA01111D
:1006D000396041070AD5E1683A6802F07002914238
:1006E00004D93A6822F070021143396081070AD5B3
:1006F000A1683A6802F00F02914204D93A6822F0E8
:100700000F0211433960C00768D1206881070AD5FC
:10071000A1683A6802F00F02914204D23A6822F0CE
:100720000F0211433960D8F8001001F00F01A942FF
:100730000CD9D8F8001021F00F012943C8F8001097
:10074000D8F8001001F00F01A94252D141070AD593
:10075000E1683A6802F07002914204D23A6822F0ED
:1007600070021143396001070CD521693A68702382
:1007700003EA1212914205D23A6822F4E06242EA98
:1007800001113960C0060CD560693968702202EA2F
:100790001121884205D2396821F4E04141EA002064
:1007A000386000F08BF8396842F2680201F00F01FE
:1007B000C0F60002525C40F20401C2F20001096876
:1007C00040F2080320FA02F2C2F2000308461A605F
:1007D00001B0BDE8F043FFF7A5BE00BF6068012887
:1007E0000CD002285ED0032862D157F8201C890162
:1007F00008D4012001B0BDE8F08300BF57F8201CE9
:100800008905F6D557F8041C21F00301084347F881
:10081000040CFFF74DFE61680646032941F2883952
:100820002BD0022937D0012910D100BF57F8040C72
:1008300000F0180008283FF468AFFFF739FE801B6E
:1008400048454FF00300F1D90DE000BF57F8040C04
:1008500010F0180F3FF459AFFFF72AFE801B4845F0
:100860004FF00300F2D901B0BDE8F083FFF720FE9E
:10087000801B48454FF00300F5D857F8040C00F0F2
:1008800018001828F2D140E7FFF712FE801B4845F8
:100890004FF00300E7D857F8040C00F018001028B8
:1008A000F2D132E757F8201C8903A2D5AAE700BF8E
:1008B00057F8201C89079CD5A4E7000080B540F6B6
:1008C0000041C4F20241C86900F01800082802BFC4
:1008D00040F60010C0F23D0080BDC86910F0180F4E
:1008E00034D0C86900F01800102802BF47F6400055
:1008F000C0F27D1080BDC86900F01800182849F2C8
:100900000000C0F2D03066D1D1F828E08A6AC2F384
:10091000052C8A6A8B6BBCF1000F04BF002080BDE0
:10092000C2F30012C3F3CC0303FB02F200EE102A61
:100930000EF00302B8EE400A032A15D0012A17D19F
:100940000A68920618D49FED251A1DE008688006F3
:1009500049F20000C0F2D03058BF80BD0968C1F331
:10096000C101C84080BD00BF9FED1B1A0CE000BF55
:100970009FED1B1A08E000BF0A68C2F3C102D04015
:1009800001EE100AB8EE411A02EE10CA486BB8EE3A
:10099000422A6FF35F2081EE021A02EE100A9FEDE9
:1009A000113AB8EE422A20EE030A486B30EE020AF2
:1009B000B7EE002AC0F3462030EE020A013021EEE5
:1009C000000A01EE100AB8EE411A80EE010ABCEEF0
:1009D000C00A10EE100A80BD20BCBE4B0024744C2F
:1009E0000024744A000000392DE9F04381B000284A
:1009F00000F0168140F6004740F6F0490446C4F284
:100A00000247C4F20249F86959F8C81C227800F07C
:100A10001808D00601F0030629D5B8F1080F1BD03D
:100A2000B8F1180F08BF022E16D0E1693868002906
:100A300000F0668140F480703860FFF739FD0546AC
:100A4000386880050CD4FFF733FD401B02284FF0B7
:100A50000300F5D95EE200BFE069002800F0E08005
:100A6000B869216A20F47C1040EA0140B86120781E
:100A7000C00717D0B8F1100F10D0B8F1180F08BF89
:100A8000032E0BD06068B0F5A02F5FDA002800F0CD
:100A9000A181B0F5803F00F0C181C3E1606800280A
:100AA00000F0BE802078800775D5B8F1000F21D006
:100AB000E068B8F1180F08BF012E55D0396800283A
:100AC00000F06481206921F018010843386038681B
:100AD00040F001003860FFF7EBFC054638688007FE
:100AE00052D4FFF7E5FC401B02284FF00300F5D974
:100AF00010E200BFE068002800F0928039682069A9
:100B000001F01801814231D0396821F01801084301
:100B10003860FFF7D3FE396A42F2680201F00F0134
:100B2000C0F60002515C40F2080201F01F0120FAF9
:100B300001F140F20400C2F200000068C2F20002BB
:100B40001160FFF7EFFC00286AD10FE000F05E8132
:100B5000B0F5A81F40F06681386840F48020386006
:100B6000386840F4801058E1002859D0FFF7A0FC05
:100B7000054600BF3868800706D4FFF799FC401B84
:100B80000228F7D965E000BF3869616920F4FE00EA
:100B900040EA014038612078000745D420784007BA
:100BA0005CD42078800600F17D80A56AA5B3B8F1F9
:100BB000180F40F0C98059F8C81C59F8BC0C012D19
:100BC0002ED0E26A01F00303934229D1C1F305213B
:100BD000226B914224D1626B01466FF35F21013A8F
:100BE00091421DD1A16BC0F3462201398A4217D12F
:100BF000E16BC0F3064201398A4211D1216CC0F386
:100C00000660013988420BD159F8B80CE16CC0F389
:100C1000CC00884240F0F281002001B0BDE8F083B2
:100C2000012001B0BDE8F083A169D9F800000029D6
:100C300050D040F08060C9F80000FFF739FC05464D
:100C4000D9F800000001A9D4FFF732FC401B0228AC
:100C5000F6D9032001B0BDE8F08300BF4FF624466B
:100C6000CFF6FF76B859C00712D1B85940F001004D
:100C7000B851FFF71DFC0546B859C00708D1FFF76A
:100C800017FC401B02284FF00300F5D942E100BFDA
:100C9000A068042846DC002800F0E080012800F06D
:100CA0000F8113E1616A3868002900F0818040F407
:100CB00080503860FFF7FCFB054600BF38688004B1
:100CC0003FF573AFFFF7F4FB401B02284FF0030022
:100CD000F4D91FE120F08060C9F80000FFF7E8FBBD
:100CE000054600BFD9F8000000017FF557AFFFF7B8
:100CF000DFFB401B02284FF00300F3D90AE100BFDD
:100D000020F480703860FFF7D3FB05463868800513
:100D10007FF5ADAEFFF7CCFB401B02284FF0030080
:100D2000F4D9F7E0052800F0BF80852840F0CE8098
:100D3000D9F8000040F00400C9F80000D9F800001C
:100D400040F08000BAE000BF386820F08070386062
:100D5000FFF7AEFB022D05460CD100BF38688001BD
:100D600040F1DC80FFF7A4FB401B02284FF003009A
:100D7000F4D9CFE03868800140F13281FFF798FB69
:100D8000401B02284FF00300F4D9C3E021F001001A
:100D90003860FFF78DFB0546386880077FF5FBAEAE
:100DA000FFF786FB401B02284FF00300F4D9B1E0A7
:100DB00020F480503860FFF77BFB054638688004DC
:100DC0007FF5F3AEFFF774FB401B02284FF00300E2
:100DD000F4D99FE0386820F480303860386820F417
:100DE00080103860386820F480203860FFF760FB9E
:100DF000054600BF386880037FF554AEFFF758FB07
:100E0000401B64284FF00300F4D983E0386840F4B5
:100E100080203860386820F480103860386840F4EA
:100E200080300AE0386820F480303860386820F478
:100E300080203860386820F480103860FFF738FB75
:100E4000054600BF386880033FF52CAEFFF730FB46
:100E5000401B64284FF00300F4D95BE0D9F8000090
:100E600020F00100C9F80000D9F8000020F080004F
:100E7000C9F80000D9F8000020F00400C9F800000B
:100E8000FFF716FB054641F2883600BFD9F800008F
:100E900080077FF586AEFFF70BFB401BB0424FF09B
:100EA0000300F3D936E000BFD9F8000040F0040099
:100EB000C9F80000D9F8000020F08000C9F800004F
:100EC000D9F8000040F0010010E000BFD9F80000A0
:100ED00020F00100C9F80000D9F8000020F004005B
:100EE000C9F80000D9F8000020F08000C9F800001F
:100EF000FFF7DEFA054641F2883600BFD9F8000058
:100F000080073FF54EAEFFF7D3FA401BB0424FF0DB
:100F10000300F3D901B0BDE8F08300BF59F8C80C55
:100F200043F6037104F12C0388430ECB084340EAD7
:100F30000220A16B49F8C80C4FF47E4202EB41211C
:100F4000E26B581E4FF4FE0389B203EB02426FF3CB
:100F50005F20084402F4FE01226C4FF0FE4303EBD5
:100F60000262084402F0FE41084449F8BC0C59F8FA
:100F7000C80C20F0100049F8C80CE06CC00049F81B
:100F8000B80C59F8C80C40F0100049F8C80C59F8D2
:100F9000C80C616C20F00C00084349F8C80C59F8E3
:100FA000C80CA16C20F02000084349F8C80C59F87F
:100FB000C80C40F4803049F8C80C386840F08070A4
:100FC0003860FFF775FA0446386880013FF524AEB3
:100FD000FFF76EFA001B02284FF00300F4D999E7DF
:100FE00059F8C80C4FF6FC71CFF6F871084049F873
:100FF000C80C002001B0BDE8F08300BF59F8C80C50
:1010000020F0100049F8C80CFFF752FA0546FFF728
:101010004FFAA842FBD0E06CC00049F8B80C59F870
:10102000C80C40F0100049F8C80C002001B0BDE821
:10103000F0830000042888BF7047DFE800F0031544
:10104000273839004EF21000CEF20000016821F07E
:101050000401016040F6E440C4F20240016821F05E
:101060000C010160704700BF4EF21000CEF200008C
:101070000168012221F00401016040F6E440C4F25D
:101080000240016862F38301016070474EF2100074
:10109000CEF200000168022221F00401016040F656
:1010A000E440C4F20240016862F3830101607047CA
:1010B0004EF21000CEF20000016841F00401016020
:1010C00070470000411E0020B0EB116F1CBF0120D3
:1010D00070474EF21002CEF200025160906011682B
:1010E00041F00301116070474EF21000CEF2000093
:1010F0000068400744BF0420704740F6E440C4F253
:101100000240006800F00C01081FB0FA80F04009AE
:10111000082908BF02207047B0B590F83C20012A8A
:1011200004BF0220B0BDD1E90232D1E900CE23F4E0
:10113000705322F47C5243EA020448F2FF73CEF665
:10114000F0730EEA0302224303F5006404EA0C0480
:1011500042EA040C0C6903F5C05222404C6942EA91
:101160000C02224303F5605422400C6B03F5F0435C
:1011700023408C6913430022CEF6FF7202EA044436
:10118000CA69D0F800C01A4342F60043C4F2010312
:101190009C4542EA040318D14FF6FF72CDF60F4288
:1011A0008C6A002503EA020ED1E90832CDF6F0453B
:1011B00005EA045423F0085344EA0E05C96A2B4398
:1011C00022F000521A4342EA01030021CCF84430D5
:1011D00080F83C100846B0BDB0B590F83C20012A1C
:1011E0004FF002022ED080F83D20026842F6004CFB
:1011F0005368D2F808E0C4F2010C624503D14C6890
:1012000023F4700323434FF68F74CFF6FF540D6819
:1012100023402B43B2F1804F536018BF624505D184
:1012200089682EF080031943916005E040F2004385
:10123000C4F200039A42F3D00121002280F83D104D
:1012400080F83C201046B0BD002804BF0120704744
:1012500010B5044690F83D0028B9002084F83C0001
:10126000204600F05DF8022084F83D00206842F638
:10127000004C0268B0F1804FC4F2010C18BF604509
:1012800004D1A36822F070021A4305E040F2004343
:10129000C4F200039842F4D0B0F1804F18BF60450B
:1012A00004D1236922F440721A4305E040F200435E
:1012B000C4F200039842F4D0A16922F08002D4F86D
:1012C00004E0E368114360450160C362C0F828E0B0
:1012D00002D16169CCF83010012141610269D20765
:1012E00003D0026922F001020261002084F8481054
:1012F00084F83E1084F83F1084F8401084F84110C0
:1013000084F8421084F8431084F8441084F845109F
:1013100084F8461084F8471084F83D1010BD000092
:1013200081B0006842F60041C4F20101884201D058
:1013300001B0704740F6A440C4F20240016841F495
:1013400000610160006800F400600090009801B046
:101350007047000080B590F83C20012A4FF002024F
:1013600000F09E8080F83D20D0F800C08822DCF894
:101370000830CFF6CE721A40CCF808200B68B3F5CF
:10138000005F0FDB3F22C0F21002934218DCB3F182
:10139000101F31DB71D02021C0F210018B426CD0C4
:1013A00030215FE03F2B1FDD5F2B2DDD602B79D0DF
:1013B000702B00F09980B3F5805F6AD0DEE000BF4B
:1013C0005F21C0F210018B4246DD6021C0F21001A6
:1013D0008B4252D07021C0F210018B4218BFB3F57E
:1013E000001F4AD0CAE000BF1F2B41DC002B44D0B5
:1013F000102B42D0C2E000BFB3F5005F00F0888040
:10140000B3F5801F39D0B9E0402B00F09580502B08
:1014100040F0B480D1F804E0C968DCF82030DCF892
:10142000202022F00102CCF82020DCF8182022F045
:10143000F00242EA011123F00A0242EA0E02CCF85D
:101440001810CCF82020DCF808104FF68872CFF680
:10145000CF72114057311AE04021C0F210018B4287
:101460000BD05021C0F210018B4206D086E000BFA5
:10147000202B02D0302B40F08180DCF808104FF692
:101480008872CFF6CF721140194341F00701CCF8B2
:1014900008100022012180F83D10002180F83C1046
:1014A000104680BDD1F804E0C968DCF82030DCF8D3
:1014B000202022F01002CCF82020DCF8182022F4A2
:1014C000704242EA013123F0A00242EA0E12CCF847
:1014D0001810CCF82020DCF808104FF68872CFF6F0
:1014E000CF7211406731D2E7D1E901E3C968DCF876
:1014F000082043EA0E0343EA012122F47F4211430C
:10150000CCF80810DCF8081041F07701BFE700BF05
:10151000D1E901E3C968DCF8082043EA0E0343EA95
:10152000012122F47F421143CCF80810DCF80810A6
:1015300041F48041ABE700BFD1F804E0C968DCF8B2
:101540002030DCF8202022F00102CCF82020DCF84A
:10155000182022F0F00242EA011123F00A0242EAC6
:101560000E02CCF81810CCF82020DCF808104FF64A
:101570008872CFF6CF721140473188E7012289E7A0
:101580002DE9F04790F83C30012B04BF0220BDE864
:10159000F0874FEAB202052A44D8DFE812F00700CC
:1015A0004B008D00CD000F01430100BF036842F6E0
:1015B00000461D6A1A6AC4F2010622F001021A628C
:1015C0001A465C6852F818CFB3428E68D1F800E032
:1015D00025F0020545EA06050CD1D1E90578CE686B
:1015E00024F4407425F00C0526F004063C433543F2
:1015F00044EA08044FF68C76CFF6FE760CEA06072E
:1016000047EA0E075C609F614F6809695F631D626E
:101610009F6947F008079F619F6927F004079F6152
:1016200035E100BF0121002280F83C200846BDE8DA
:10163000F08700BF03681D6A1A6A25F0200522F0B2
:1016400010021A621A46D3F804C052F8184F8E6876
:10165000D1F800E045EA061542F60046C4F201065C
:10166000B34211D125F0C008D1E90575D1F80CA01D
:101670002CF440666FF0400946EA870709EA0A162B
:1016800047EA850C46EA080548F6FF46CFF6FF66AE
:10169000344044EA0E27C3F804C09F614F680969CB
:1016A0009F631D629F6947F400679F619F6927F4EC
:1016B00080679F61EAE000BF03681D6A1A6A25F42B
:1016C000007522F480721A621A46D3F804C052F8E8
:1016D0001CEF8E680C6845EA062542F60046C4F207
:1016E0000106B34211D1D1E9057A25F44068CE68EC
:1016F0002CF4405545EA0717360240F2FF4926EA26
:10170000090547EA0A1C45EA08054FF68C76CFF62C
:10171000FE760EEA06072743C3F804C0DF614F6870
:101720000969DF631D62DF6947F00807DF61DF6970
:1017300027F00407DF61AAE003681D6A1A6A25F42E
:10174000005522F480521A621A46D3F804C052F8A7
:101750001C4F8E68D1F800E045EA063542F6004697
:10176000C4F20106B34211D1D1E9057A25F440480B
:10177000CE682CF4404545EA8717360344F6FF79D6
:1017800026EA090547EA8A1C45EA080548F6FF46A5
:10179000CFF6FF66344044EA0E27C3F804C0DF6189
:1017A0004F6809691F641D62DF6947F40067DF61E4
:1017B000DF6927F48067DF6168E000BF036842F6F5
:1017C0000047D3F820C01A6AC4F2010722F480321D
:1017D0001A621A465D6852F8504FD1F800E08E68E0
:1017E000BB4204D14F6925F4803545EA07252CF426
:1017F000003747EA06474FF68C76CFF6FE7603367B
:10180000264046EA0E065D601E654E6809699E64C4
:101810001F621F6D47F008071F651F6D27F0040743
:101820001F6534E0036842F60047D3F820C01A6A07
:10183000C4F2010722F480121A621A465D6852F857
:10184000504FD1F800E08E68BB4204D14F6925F4B7
:10185000802545EA87252CF4001747EA065748F605
:10186000FF46CFF6FF6606F54076264046EA0E268E
:101870005D601E654E680969DE641F621F6D47F476
:1018800000671F651F6D27F480671F6509021368D5
:10189000194311600021002280F83C200846BDE871
:1018A000F0870000002804BF0120704710B50446EF
:1018B00090F83D0028B9002084F83C00204600F054
:1018C0005DF8022084F83D00206842F6004C026872
:1018D000B0F1804FC4F2010C18BF604504D1A36879
:1018E00022F070021A4305E040F20043C4F2000304
:1018F0009842F4D0B0F1804F18BF604504D12369FD
:1019000022F440721A4305E040F20043C4F200039F
:101910009842F4D0A16922F08002D4F804E0E36890
:10192000114360450160C362C0F828E002D16169DB
:10193000CCF83010012141610269D20703D002695D
:1019400022F001020261002084F8481084F83E1061
:1019500084F83F1084F8401084F8411084F8421055
:1019600084F8431084F8441084F8451084F8461035
:1019700084F8471084F83D1010BD00007047000047
:1019800061B10A1F4FEAB202032A17D8DFE802F05A
:10199000021A1E2200F13F031EE000BF90F83E2015
:1019A000012A1CBF01207047022280F83E204FEA26
:1019B000B103032B4FF0010241D84CE000F1430387
:1019C0000AE000BF00F1400306E000BF00F1410360
:1019D00002E000BF00F142031B78012B1CBF012075
:1019E0007047032A0ED8DFE802F00317212D00BF4D
:1019F000022280F83F204FEAB103032B4FF001028F
:101A00001DD828E0022280F843204FEAB103032BBF
:101A10004FF0010213D81EE0022280F840204FEA66
:101A2000B103032B4FF0010209D814E0022280F821
:101A300041204FEAB103032B4FF001020BD91046AE
:101A4000704700BF022280F842204FEAB103032B07
:101A50004FF00102F3D842F2780C0068C0F6000C97
:101A60005CF823C0C36801F01F0143EA0C03C360A4
:101A7000036A8A4023EA02010162036A42F6444192
:101A8000C4F201011A43A1F144039842026203D057
:101A9000B0F1804F07D112E00A6842F400420A60B8
:101AA000B0F1804F0BD042F60041C4F201018842F0
:101AB00005D040F20041C4F2000188420BD1816898
:101AC0000722C0F20102114006294FF0000218BFA0
:101AD000B1F5803FB3D00168002241F001010160FF
:101AE00010467047FEE700002DE9F04387B000275D
:101AF00040F68C400697C4F202400168002441F091
:101B0000010101600168C4F2022401F001010191A8
:101B100001990168002241F002010160006806217C
:101B200000F002000190019820460626FEF7BAFC5C
:101B300004F5806528464FF4A17100224FF4A17886
:101B4000FEF7B0FC029602AE4FF001092046314686
:101B5000CDE903970597FEF7DDFB28463146CDE931
:101B60000289CDE90477FEF7D5FB07B0BDE8F08325
:101B7000B0B5A0B0002442F60045684634211A945E
:101B8000CDE918441694CDE91444CDE91244CDE9C9
:101B90001044CDE90E44C4F201050D94FEF781FB1B
:101BA00040F21400F921C2F2000040F2E732C0E92D
:101BB0000051C0E90242C0E904448461FFF744FBDC
:101BC000002818BFFEF78EFB4FF48050179040F2AC
:101BD0001400C2F2000017A9FFF7BCFB002818BFD1
:101BE000FEF780FB40F21400C2F20000FFF75AFE3D
:101BF000002818BFFEF776FB40F214000024C2F262
:101C0000000014A9CDE914441694FFF7E5FA002862
:101C100018BFFEF767FB60200D9040F2F310CDE98E
:101C20000E0440F21400C2F200000DA90022CDE91A
:101C30001044CDE91244FFF7A3FC002818BFFEF7BB
:101C400051FB00204FF4005140F21404CDE905107F
:101C50004FF00071C2F200040490CDE90200CDE91A
:101C60000000CDE90700CDE90910CDE90B00694678
:101C70002046FFF751FA002818BFFEF733FB206813
:101C8000A84201D020B0B0BD40F68C40C4F2024062
:101C9000016841F00201016000681BA900F0020028
:101CA0001B901B9880201B9002201C900020CDE9E7
:101CB0001D000E201F9040F20040C4F20220FEF7EB
:101CC00029FB20B0B0BD0000FEE70000FEE70000E9
:101CD00070470000F0B581B0402800F22D8000224E
:101CE000002400250026DFE800F05555213133316E
:101CF000313139313131313131313F3131313131BE
:101D000031313131313131313131453131313131AF
:101D100031313131313131313131313131313131B3
:101D2000313131313131313131314B000024012237
:101D3000012500262EE000BF802827D0B0F5807F47
:101D400004D1002501220124002623E001B0F0BDCA
:101D500001240022002501261CE000BF00240122EE
:101D60000125012616E000BF0122012401250126DC
:101D700010E000BF01240022002500260AE000BF79
:101D8000002501220124012604E000BF00240122D5
:101D90000025002640F20047C4F20227A7F5806024
:101DA0000221FEF77FFB38464FF480712246FEF792
:101DB00079FB384680212A46FEF774FB38464021DD
:101DC000324601B0BDE8F040FEF76CBBB0FA80F0DF
:101DD00042090020C4F202200421FEF763BB000088
:101DE0000246002818BF012240F20040C4F202203F
:101DF0000221FEF757BB00000246002818BF01224F
:101E000040F20040C4F202204021FEF74BBB00002C
:101E100070470000FEF752BB10B59CB008A840F612
:101E2000140404302421C4F20244FEF73AFA0020DC
:101E3000CDE90600CDE90400CDE9020054F8040C18
:101E400040F0300044F8040C54F8040C00F030006A
:101E5000019001982068000709D4206800075CBF42
:101E600020685FEA007002D420680007F2D51020D5
:101E700008904FF480700F902020012110900220D4
:101E800014917D21CDE91200CDE91510CDE917009F
:101E900008201990002408A8CDE91A44FEF7A4FDF3
:101EA00010B172B6FEE700BF1F2002900320CDE9FB
:101EB000030402A80521CDE905440794FEF7C6FBFB
:101EC00010B172B6FEE700BF42F20000C4F2020099
:101ED0000168022262F3051101601CB010BD000010
:101EE0004EF6885CCEF2000CDCF80000012240F4D3
:101EF0007000CCF8000040F60040C4F202400260DE
:101F00000022C261026203684EF6E321CFF6E221AD
:101F10001940016040F28021C0F201118262C26268
:101F200041638263C1630264016821F4802101601E
:101F300002654FF0006142F21C00C4F202004CF84E
:101F4000801C50F8041C4A0F062A05D801F0604195
:101F5000B1F1404F18BF70470168C9070BD042F676
:101F60003B21C0F6190140F8101C46F67F61C4F60B
:101F70005D4140F8101C016841F0020101600168F8
:101F800041F0010101607047FEE7000086B0FEF7F6
:101F9000A3FAFFF741FFFFF7A7FD002540F68C40AD
:101FA0000595C4F20240016840F2004441F001018D
:101FB00001600068C4F2022400F001000090009863
:101FC0002046802100228026FEF76CFA0120CDE910
:101FD000020501A9204601960495FEF79BF96420AD
:101FE000FEF784F90020FFF775FE0020FFF7F8FEEA
:101FF0000120FFF7EBFE6420FEF778F90220FFF7DF
:1020000069FE0020FFF7E2FE6420FEF76FF9002072
:10201000FFF7F2FE6420FEF769F90120FFF7E0FE0A
:102020006420FEF763F940F21000C2F200004FF4A2
:10203000FA610180FFF79CFD40F21400C2F200003B
:102040000021FFF79DFC00BFFEE702E008C8121F59
:1020500008C1002AFAD170477047002001E001C191
:10206000121F002AFBD17047000000000000000092
:102070000102030406070809020000000400000032
:102080000800000010000000FDFFFFFFFBFFFFFF46
:10209000F7FFFFFFEFFFFFFFB82000080000002060
:1020A000100000004A200008C8200008100000208E
:1020B000584000005A2000080100000010000000F5
:0820C0000090D00300000000B5
:040000050800025994
:00000001FF
